{
  "contractName": "news",
  "abi": [
    {
      "constant": true,
      "inputs": [],
      "name": "newsCount",
      "outputs": [
        {
          "name": "",
          "type": "uint256"
        }
      ],
      "payable": false,
      "stateMutability": "view",
      "type": "function"
    },
    {
      "constant": true,
      "inputs": [
        {
          "name": "",
          "type": "uint256"
        }
      ],
      "name": "newsfeeds",
      "outputs": [
        {
          "name": "publisher",
          "type": "address"
        },
        {
          "name": "newsdesc",
          "type": "string"
        }
      ],
      "payable": false,
      "stateMutability": "view",
      "type": "function"
    },
    {
      "constant": false,
      "inputs": [
        {
          "name": "newsdesc",
          "type": "string"
        }
      ],
      "name": "addnews",
      "outputs": [],
      "payable": false,
      "stateMutability": "nonpayable",
      "type": "function"
    }
  ],
  "bytecode": "0x608060405234801561001057600080fd5b50610480806100206000396000f3fe608060405260043610610057576000357c0100000000000000000000000000000000000000000000000000000000900463ffffffff1680639981d6d31461005c578063f3e24dcb14610087578063ff29d1381461014f575b600080fd5b34801561006857600080fd5b50610071610236565b6040518082815260200191505060405180910390f35b34801561009357600080fd5b5061014d600480360360208110156100aa57600080fd5b81019080803590602001906401000000008111156100c757600080fd5b8201836020820111156100d957600080fd5b803590602001918460018302840111640100000000831117156100fb57600080fd5b91908080601f016020809104026020016040519081016040528093929190818152602001838380828437600081840152601f19601f82011690508083019250505050505050919291929050505061023c565b005b34801561015b57600080fd5b506101886004803603602081101561017257600080fd5b81019080803590602001909291905050506102d3565b604051808373ffffffffffffffffffffffffffffffffffffffff1673ffffffffffffffffffffffffffffffffffffffff16815260200180602001828103825283818151815260200191508051906020019080838360005b838110156101fa5780820151818401526020810190506101df565b50505050905090810190601f1680156102275780820380516001836020036101000a031916815260200191505b50935050505060405180910390f35b60015481565b60016000815480929190600101919050555033600080600154815260200190815260200160002060000160006101000a81548173ffffffffffffffffffffffffffffffffffffffff021916908373ffffffffffffffffffffffffffffffffffffffff16021790555080600080600154815260200190815260200160002060010190805190602001906102cf9291906103af565b5050565b60006020528060005260406000206000915090508060000160009054906101000a900473ffffffffffffffffffffffffffffffffffffffff1690806001018054600181600116156101000203166002900480601f0160208091040260200160405190810160405280929190818152602001828054600181600116156101000203166002900480156103a55780601f1061037a576101008083540402835291602001916103a5565b820191906000526020600020905b81548152906001019060200180831161038857829003601f168201915b5050505050905082565b828054600181600116156101000203166002900490600052602060002090601f016020900481019282601f106103f057805160ff191683800117855561041e565b8280016001018555821561041e579182015b8281111561041d578251825591602001919060010190610402565b5b50905061042b919061042f565b5090565b61045191905b8082111561044d576000816000905550600101610435565b5090565b9056fea165627a7a72305820ce6466163e2d823502b709617c29879db1133b534319cce5a8d742e7d35d246a0029",
  "source": "pragma solidity >=0.4.0 <=0.6.0;\r\n\r\ncontract news{\r\n    struct newsfeed{\r\n        address publisher;\r\n        string newsdesc;\r\n    }\r\n    mapping(uint => newsfeed) public newsfeeds;\r\n    uint public newsCount;\r\n\r\n    function addnews(string memory newsdesc) public {\r\n        newsCount++;\r\n        newsfeeds[newsCount].publisher = msg.sender;\r\n        newsfeeds[newsCount].newsdesc = newsdesc;\r\n    }\r\n}",
  "sourcePath": "C:/Users/aaaa/postnews/contracts/news.sol",
  "compiler": {
    "name": "solc",
    "version": "0.5.0+commit.1d4f565a.Emscripten.clang"
  },
  "schemaVersion": "3.0.1",
  "updatedAt": "2020-11-22T18:40:32.020Z",
  "devdoc": {
    "methods": {}
  },
  "userdoc": {
    "methods": {}
  }
}